:020000040000FA
:100000000C9451060C9482060C9482060C94820681
:100010000C9482060C9482060C9482060C94820640
:100020000C9482060C9482060C9482060C94820630
:100030000C9482060C9482060C9482060C94820620
:100040000C9482060C9482060C9482060C94820610
:100050000C9482060C9482060C9482060C94F51B78
:100060000C9482060C94BF1B0C94951B0C94820676
:100070000C9482060C9482060C9482060C948206E0
:100080000C94631D0C9482060C9482060C948206D8
:100090000C945F1B0C94351B0C9482060C943F1C33
:1000A0000C9482060C9482060C9482060C948206B0
:1000B0000C9482060C9482060C9482060C948206A0
:1000C0000C9482060C9482060C9482060C94820690
:1000D0000C9482060C9482060C9482060C94820680
:1000E0000C9482060C94FF120C94BE080C943E08EB
:1000F0000C9475070C94440F0C94500F0C944915F4
:100100000C946F110C94890D0C94DC080C94B611AE
:100110000C94111B0C94E4080C94600E0C94A10731
:100120000C947D0A0C947D070C942C130C947E0780
:100130000C94A9080C94AF070C9476070C94A6169F
:100140000C94BB080C94BC1D0C9443190C94E51240
:100150000C94EE080C94B7080C94C8080C94B308DF
:100160000C94F1070C94340F0C94E0080C9448079D
:100170000C94D6120C94B70C0C94AF080C94E908AC
:100180000C94EA080C94A3160C94D6080C9426112F
:100190000C945C0F0C94E80D0C94CE080C94F8129F
:1001A0000C94D2080C947C070C94C4080C948D0712
:1001B0000C947D0E0C94630F2200FF2100000103BC
:1001C000070F1F3F7F0080C0E0F0F8FCFE0000003A
:1001D00000003E5B4F5B3E3E6B4F6B3E1C3E7C3EE9
:1001E0001C183C7E3C181C577D571C1C5E7F5E1CF7
:1001F00000183C1800FFE7C3E7FF0018241800FFB1
:10020000E7DBE7FF30483A060E2629792926407FAA
:10021000050507407F05253F5A3CE73C5A7F3E1CB9
:100220001C08081C1C3E7F14227F22145F5F005FA5
:100230005F06097F017F006689956A606060606083
:1002400094A2FFA29408047E040810207E201008C7
:10025000082A1C08081C2A08081E101010100C1E62
:100260000C1E0C30383E3830060E3E0E06000000E4
:10027000000000005F00000007000700147F147FEB
:1002800014242A7F2A122313086462364956205008
:100290000008070300001C2241000041221C002A24
:1002A0001C7F1C2A08083E080800807030000808DF
:1002B000080808000060600020100804023E514950
:1002C000453E00427F400072494949462141494D1F
:1002D000331814127F1027454545393C4A494931A6
:1002E00041211109073649494936464949291E0025
:1002F00000140000004034000000081422411414CF
:10030000141414004122140802015909063E415DEB
:10031000594E7C1211127C7F494949363E41414178
:10032000227F4141413E7F494949417F09090901F5
:100330003E414151737F0808087F00417F41002002
:1003400040413F017F081422417F404040407F02EE
:100350001C027F7F0408107F3E4141413E7F090916
:1003600009063E4151215E7F09192946264949491E
:100370003203017F01033F4040403F1F2040201FC8
:100380003F4038403F63140814630304780403615A
:1003900059494D43007F414141020408102000416A
:1003A00041417F04020102044040404040000307F5
:1003B000080020545478407F28444438384444444A
:1003C00028384444287F385454541800087E0902C1
:1003D00018A4A49C787F0804047800447D40002081
:1003E00040403D007F1028440000417F40007C04D5
:1003F0007804787C080404783844444438FC182491
:10040000241818242418FC7C080404084854545464
:100410002404043F44243C4040207C1C2040201CF9
:100420003C4030403C44281028444C9090907C4400
:1004300064544C440008364100000077000000413D
:1004400036080002010204023C2623263C1EA1A11C
:1004500061123A4040207A38545455592155557903
:1004600041225454784221555478402054557940C3
:100470000C1E527212395555555939545454593924
:10048000555454580000457C410002457D4200010E
:10049000457C407D1211127DF0282528F07C5455B2
:1004A00045002054547C547C0A097F49324949490B
:1004B000323A4444443A324A4848303A4141217A37
:1004C0003A42402078009DA0A07D3D4242423D3D01
:1004D0004040403D3C24FF2424487E4943662B2F66
:1004E000FC2F2BFF0929F620C0887E0903205454D5
:1004F00079410000447D413048484A32384040222A
:100500007A007A0A0A727D0D19317D2629292F2851
:10051000262929292630484D40203808080808088F
:10052000080808382F10C8ACBA2F102834FA000079
:100530007B000008142A142222142A14085500559E
:100540000055AA55AA55AAFF55FF55FF000000FF08
:1005500000101010FF00141414FF001010FF00FF13
:100560001010F010F0141414FC001414F700FF0025
:1005700000FF00FF1414F404FC141417101F1010D3
:100580001F101F1414141F00101010F000000000A2
:100590001F101010101F10101010F010000000FF9E
:1005A000101010101010101010FF10000000FF1499
:1005B0000000FF00FF00001F10170000FC04F414EF
:1005C000141710171414F404F40000FF00F71414A7
:1005D0001414141414F700F7141414171410101F23
:1005E000101F141414F4141010F010F000001F1059
:1005F0001F0000001F14000000FC140000F010F0A9
:100600001010FF10FF141414FF141010101F00001E
:100610000000F010FFFFFFFFFFF0F0F0F0F0FFFF31
:10062000FF0000000000FFFF0F0F0F0F0F384444C2
:100630003844FC4A4A4A347E02020606027E027EA2
:100640000263554941633844443C04407E201E20E7
:1006500006027E020299A5E7A5991C2A492A1C4C8C
:100660007201724C304A4D4D303048784830BC628F
:100670005A463D3E494949007E0101017E2A2A2A07
:100680002A2A44445F444440514A444040444A5129
:10069000400000FF0103E080FF000008086B6B08CA
:1006A0003612362436060F090F060000181800000F
:1006B000001010003040FF0101001F01011E001951
:1006C0001D1712003C3C3C3C0000000000000020D4
:1006D000002300260029002C002F0032000001001A
:1006E0000003010601090100000A0B02090C0D0EAE
:1006F00008070304010000000000000000000000E3
:1007000000000000000000000000000000000000E9
:1007100000000012111000000000000000000000A6
:1007200000000000000000000000000000000021A8
:1007300000240027002A002D0030003300010100B2
:1007400000040107010A01DB40A4A62EAF2000A18E
:10075000C8D300408DAED580A80102102020080823
:100760001020401020408002010201080402010113
:1007700002040810204080804020100804020180FC
:100780000402018040201008040201080402010153
:10079000020408102040800102040810204080005C
:1007A000002200250028002B002E0031003400021A
:1007B000010000050108010B0105050505070508F5
:1007C000080808020202020A0A08080404040401D4
:1007D00001010101010101030303030303030304F6
:1007E0000707070C0C0C0C0C0C0C0C020202020686
:1007F000060606060606060B0B0B0B0B0B0B0B0077
:100800000060000000000000000000000000000088
:10081000E00000000000000000000000000001E017
:100820000000000000000000000000000001F000D7
:1008300000000000000000000000000003F00000C5
:10084000000000000000000000000007F0000000B1
:100850000000000000000000000007F80000000099
:100860000000000000000000000FF800000003C0BE
:10087000007E000001E0007F0FF800000003C000D0
:10088000FE000001E000FFEFF800000003C000FEE2
:10089000000001E000FFFFF800000003C000F000CE
:1008A00000000F007FFE7FC0000003C000F00000CA
:1008B000000F003FFE7FF83FF1FBCFFCFEF3BC3D95
:1008C000EFE01FFE7FFF7FFBFFDFFEFEFFBC3DEF83
:1008D000E01FC6FFFF7FFBFFDFFEFEFFBC3DEFE03A
:1008E0000FE3C7FE787BC3DE1EF0FFBC3DEF0007C1
:1008F000FF87FC787BC3DE1EF0F83C3DEF0001FF74
:10090000FFF0007BC3C01EF0F03C3DEF0001F37F21
:10091000E03FFBC3CFFEF0F03C3DEF0003E33F8040
:100920007FFBC3DFFEF0F03C3DEF0007E73C0078C3
:100930007BC3DE1EF0F03C3DEF0007FFBE00787B7E
:10094000C3DE1EF0F03C3DEF0007FFFE00787BC3E6
:10095000DE1EF0F03C3DEF000FFFFE007FFBFFDFEF
:10096000FEF0F03FFDEFE00FFFFF007FFBFFDFFE3B
:10097000F0F03FFDEFE00FF9FF003E79F9CF9EF078
:10098000F01F3DE7E01FF1FF000000000000000045
:10099000000000001F80FF007FFFFFFFFFFFFFFF41
:1009A000FFFFE01C007F007FFFFFFFFEB46D888D1E
:1009B00018E000001F007FFFFFFFFE95AD7DB577BB
:1009C000E000000F007FFFFFFFFEA5AD9D8D19E049
:1009D000000006007FFFFFFFFEB5ADEDB57EE00035
:1009E0000000000001800000000000000000000383
:1009F0008000000000000000000007C000000000B0
:100A0000000000000007C00000000000000000001F
:100A10000FC00000000000000000001FE000000008
:100A20000000000000001FE00000000000000000C7
:100A3000003FE00000000000000000003FF0000068
:100A4000000000000000007FF00000000000000037
:100A50001FF87FF0000000000000003FFE7FF00064
:100A60000000000000003FFF7FF0000000000000D9
:100A7000001FFFFBE0000000000000000FFFF9FF77
:100A8000C00000000000000FFFF9FFF800000000A8
:100A9000000007FFF1FFFF00000000000003FC73EF
:100AA000FFFF80000000000001FE3FFFFF8000000C
:100AB00000000000FF1E0FFF000000000000007F8C
:100AC000FE1FFC000000000000003FFFFFF80000D8
:100AD00000000000000FDFFFE00000000000000049
:100AE0001F19FFC0000000000000003F3CFF000095
:100AF0000000000000007E7CF80000000000000004
:100B0000007FFE7C0000000000000000FFFFFC00F2
:100B100000000000000000FFFFFE000000000000D9
:100B20000000FFFFFE0000000000000001FFEFFEDC
:100B30000000000000000001FFCFFE0000000000E8
:100B4000000003FF07FE0000000000000003FC0798
:100B5000FE0000000000000003F003FE00000000A3
:100B6000000000018000FE00000000000000000006
:100B7000007E000000000000000000003E000000B9
:100B8000000000000000000C0000000000000780D2
:100B900000FC000003C0000000078001FC0000030F
:100BA000C0000000078001FC000003C00000000737
:100BB0008001E00000001E000000078001E000004E
:100BC000001E007FE3F79FF9FDE7787BDFC0FFF7AA
:100BD000FFBFFDFDFF787BDFC0FFF7FFBFFDFDFF1F
:100BE000787BDFC0F0F787BC3DE1FF787BDE00F06B
:100BF000F787BC3DE1F0787BDE0000F787803DE1C0
:100C0000E0787BDE007FF7879FFDE1E0787BDE0008
:100C1000FFF787BFFDE1E0787BDE00F0F787BC3DA2
:100C2000E1E0787BDE00F0F787BC3DE1E0787BDE39
:100C300000F0F787BC3DE1E0787BDE00FFF7FFBF07
:100C4000FDE1E07FFBDFC0FFF7FFBFFDE1E07FFBE1
:100C5000DFC07CF3F39F3DE1E03E7BCFC0000000AE
:100C60000000000000000000FFFFFFFFFFFFFFFF8C
:100C7000FFFFC0FFFFFFFFFD68DB111A31C0FFFF60
:100C8000FFFFFD2B5AFB6AEFC0FFFFFFFFFD4B5B31
:100C90003B1A33C0FFFFFFFFFD6B5BDB6AFDC0004B
:100CA000BC1D11241FBECFEFD1E2DEBFCDBF00E0DF
:100CB0000CBF13E0A0E0B2E0ECE3FBE500E00BBF0B
:100CC00002C007900D92AE3EB107D9F726E0AEEE16
:100CD000B3E001C01D92AB36B207E1F716E0C1E503
:100CE000D6E000E006C021970109802FFE010E9496
:100CF000B22AC035D10780E00807A9F70E94571E25
:100D00000C949C2D0C9400000F931F93CF93DF93B2
:100D1000EC019A01AB01E889F98982E08083EC85D6
:100D2000FD8510820E851F8560E079E08DE390E0FF
:100D30000E945D2A21503109410951095695479574
:100D400037952795F8012083188EEC89FD8986E078
:100D50008083EA89FB89808180618083EA89FB89BD
:100D6000808188608083EA89FB89808180688083B4
:100D7000EA89FB8980818F7D8083DF91CF911F91EC
:100D80000F9108953F924F925F926F927F928F9250
:100D90009F92AF92BF92CF92DF92EF92FF920F930A
:100DA0001F93CF93DF9300D01F92CDB7DEB79C8304
:100DB0008B833B016A015901DC01ED91FC910284B6
:100DC000F385E02D19952801B7E04B0E511C93E0F7
:100DD000559447949A95E1F7C6018E0D9F1D9A830D
:100DE0008983912C812C312CF12CE12CC701877047
:100DF0009927330C892B59F4F70183E0F595E79592
:100E00008A95E1F7E80DF91DEA0DFB1D349037FED8
:100E100010C0AB81BC81ED91FC9111970484F585E4
:100E2000E02D21E030E0A601B701660D771DCD0170
:100E30001995BFEFEB1AFB0A0E151F05B9F68FEFD8
:100E4000C81AD80A840C951CA981BA81CA16DB0677
:100E500059F6AB81BC81ED91FC9111970688F78919
:100E6000E02DCD010F900F900F900F90DF91CF915B
:100E70001F910F91FF90EF90DF90CF90BF90AF90B8
:100E80009F908F907F906F905F904F903F901994BC
:100E9000AF92BF92CF92DF92EF92FF920F931F9388
:100EA000CF93DF936C017B018B01040F151FEB01C6
:100EB0005E01AE18BF08C017D10759F06991D6017D
:100EC000ED91FC910190F081E02DC6011995892BDF
:100ED00079F7C501DF91CF911F910F91FF90EF90AE
:100EE000DF90CF90BF90AF900895089591E09093D8
:100EF000BC048093BB04089508950895FC01538DAC
:100F0000448D252F30E0842F90E0821B930B5417E3
:100F100010F0CF96089501970895FC01918D828D70
:100F2000981761F0A28DAE0FBF2FB11D5D968C9109
:100F3000928D9F5F9F73928F90E008958FEF9FEF48
:100F40000895FC01918D828D981731F0828DE80F04
:100F5000F11D858D90E008958FEF9FEF0895FC01BE
:100F6000918D228D892F90E0805C9F4F821B91098B
:100F70008F739927089583EC94E00E94AF0721E0D6
:100F8000892B09F420E0822F089580E695E00E94E5
:100F9000AF0721E0892B09F420E0822F0895FC019E
:100FA000A48DA80FB92FB11DA35ABF4F2C91848DCA
:100FB00090E001968F739927848FA689B7892C9327
:100FC000A089B1898C91837080648C93938D848D7A
:100FD000981306C00288F389E02D80818F7D80837D
:100FE0000895EF92FF920F931F93CF93DF93EC013D
:100FF00081E0888F9B8D8C8D98131AC0E889F989C0
:10100000808185FF15C09FB7F894EE89FF896083C2
:10101000E889F98980818370806480839FBF81E043
:1010200090E0DF91CF911F910F91FF90EF90089585
:10103000F62E0B8D10E00F5F1F4F0F731127E02E60
:101040008C8D8E110CC00FB607FCFACFE889F98998
:10105000808185FFF5CFCE010E94CF07F1CFEB8DC8
:10106000EC0FFD2FF11DE35AFF4FF0829FB7F8946C
:101070000B8FEA89FB8980818062CFCFCF93DF938A
:10108000EC01888D8823B9F0AA89BB89E889F989A0
:101090008C9185FD03C0808186FD0DC00FB607FCD5
:1010A000F7CF8C9185FFF2CF808185FFEDCFCE0108
:1010B0000E94CF07E9CFDF91CF91089580E090E0C3
:1010C000892B29F00E94C50781110E94000080E051
:1010D00090E0892B29F00E94BB0781110E9400003B
:1010E00080E090E0892B49F080E090E0892B29F0A6
:1010F0000E94000081110E94000080E090E0892B96
:1011000049F080E090E0892B29F00E9400008111D5
:101110000C94000008958150823108F05AC0E82FE5
:10112000F0E08827E956F74F8F4F0C94B22AB708A2
:10113000BB08A908AF08B308E908BE08C408C80876
:10114000CE08D208D608DC08E008E908E408EA0876
:10115000EE08809180008F778093800008958091C1
:1011600080008F7DF9CF80918000877FF5CF84B597
:101170008F7784BD089584B58F7DFBCF8091B000BB
:101180008F778093B00008958091B0008F7DF9CF64
:10119000809190008F7780939000089580919000C7
:1011A0008F7DF9CF80919000877FF5CF8091A0004F
:1011B0008F778093A00008958091A0008F7DF9CF54
:1011C0008091A000877FF5CF809120018F77809359
:1011D00020010895809120018F7DF9CF8091200119
:1011E000877FF5CFCF93DF93282F30E0F901E951C6
:1011F000F94F8491F901E75AF84FD491F901E75476
:10120000F84FC491CC23A1F081110E948B08EC2FE0
:10121000F0E0EE0FFF1FE353F94FA591B491EC916D
:10122000ED2381E090E009F480E0DF91CF91089513
:1012300080E090E0FACF1F93CF93DF93282F30E028
:10124000F901E951F94F8491F901E75AF84FD49126
:10125000F901E754F84FC491CC23A9F0162F81115E
:101260000E948B08EC2FF0E0EE0FFF1FE156F84FC5
:10127000A591B4918FB7F894EC91111108C0D09555
:10128000DE23DC938FBFDF91CF911F910895DE2B7A
:10129000F8CFCF93DF9390E0FC01E75AF84F249109
:1012A0008754984FFC0184918823C9F090E0880FFF
:1012B000991FFC01E35DF84FA591B491FC01E15643
:1012C000F84FC591D49161110DC09FB7F8948C91DE
:1012D000209582238C938881282328839FBFDF91C8
:1012E000CF910895623051F49FB7F8943C91822FCA
:1012F000809583238C93E8812E2BEFCF8FB7F894C2
:10130000EC912E2B2C938FBFEACF1F93CF93DF93BB
:10131000EC01862F142F688379834A835B8322E054
:1013200030E03D832C8362E00E94490962E0812F16
:101330000E94490988810E94F208182F8A810E9420
:10134000F208880F991F812B8E831F8218861986B9
:101350001A861B861C861D861E861F86188A198A79
:101360001A8ADF91CF911F9108953FB7F894809129
:10137000A6049091A704A091A804B091A90426B551
:10138000A89B05C02F3F19F00196A11DB11D3FBFBD
:10139000BA2FA92F982F8827BC01CD01620F711D8C
:1013A000811D911D42E0660F771F881F991F4A9586
:1013B000D1F708958F929F92AF92BF92CF92DF9212
:1013C000EF92FF924B015C010E94B5096B017C0119
:1013D0000E94B5096C197D098E099F09683E73400A
:1013E00081059105A8F321E0821A9108A108B108AE
:1013F00088EEC80E83E0D81EE11CF11C8114910414
:10140000A104B10429F7FF90EF90DF90CF90BF9037
:10141000AF909F908F9008952FB7F8946091A20499
:101420007091A3048091A4049091A5042FBF089506
:101430008F929F92AF92BF92CF92DF92EF92FF92E4
:101440006B017C010E940C0A4B015C01C80CD91C89
:10145000EA1CFB1C0E940C0A681579058A059B058D
:1014600028F0C616D706E806F906A0F7FF90EF9019
:10147000DF90CF90BF90AF909F908F900895CF92C4
:10148000DF92EF92FF920F931F93811123C00E946E
:101490000C0A00910B0610910C0620910D0630915C
:1014A0000E06DC01CB01801B910BA20BB30B81322A
:1014B0009105A105B10570F401E210E020E030E0F3
:1014C00068017901C81AD90AEA0AFB0AC701B601FC
:1014D0000E94180A0E940C0A60930B0670930C0677
:1014E00080930D0690930E0681E01F910F91FF905F
:1014F000EF90DF90CF9008950895FC016370668BA4
:101500008481958126813781613039F0633029F0FB
:101510009187808733872287089531872087938733
:10152000828708952F923F924F925F926F927F929F
:101530008F929F92AF92BF92CF92DF92EF92FF92E3
:101540000F931F93CF93DF93CDB7DEB76A970FB694
:10155000F894DEBF0FBECDBF9A8F898F7A836983DF
:101560004A01D22E18870F833701BC2CDC01599613
:101570002D913C915A972115310509F015C1189606
:101580008D919C911997681779070CF0D7C11A961D
:101590008D919C91481759070CF0D0C14C2C512CBF
:1015A000B6E0CB9E600D711D11247C876B871616EB
:1015B00017060CF0C3C1EA2DF0E0FA87E98793E043
:1015C000EE0FFF1F9A95E1F7F88BEF87CF01840F9D
:1015D000951F181619060CF0B1C1A98DBA8D589631
:1015E0008C91811104C0BFEABD1508F4D394A98D74
:1015F000BA8DED91FC9111970284F385E02DCD0118
:101600001995B5E0DB9EC0011124E981FA81FC83C4
:10161000EB83312C212C9C0123533E4F388F2F8B91
:101620004A2D50E05E8B4D8BEF89F88DE20DF31D56
:1016300044919E828D82D12CC12C69817A81620D68
:10164000731D7A8B698B842F90E09C8B8B8BE98D3B
:10165000FA8DA081B18140FF82C0F1E0BF126FC05E
:10166000AF126DC01C96ED91FC912F813885A401BD
:101670004C0D5D1D69897A89898D9A8D1995EB8943
:10168000FC89F595E7954E2F5FEFC51AD50A6D8158
:101690007E818D899E89680F791F7E836D8398E096
:1016A000C916D10481F6AFEF2A1A3A0AEB81FC8100
:1016B000E40DF51DFC83EB83F5E02F16310409F0F2
:1016C000B3CF2F81388526153705B9F0A98DBA8D8E
:1016D000ED91FC91B1E0BB1257C0AB1255C06981CE
:1016E0007A816B5F7F4F0088F189E02D830128E0CC
:1016F00030E0A401898D9A8D1995A98DBA8DED914F
:10170000FC9111970688F789E02DCD016A960FB6F6
:10171000F894DEBF0FBECDBFDF91CF911F910F9127
:10172000FF90EF90DF90CF90BF90AF909F908F9001
:101730007F906F905F904F903F902F9019941E96DE
:10174000ED91FC91EF80F88409851A8592014D8115
:101750005E816B817C81898D9A8D199590CF2F81C7
:1017600038852615370509F48ACF31E0B31207C052
:10177000A31205C01C96ED91FC91930178CF1E96A3
:10178000ED91FC917301E0CF6B857C85641975093F
:101790000684F785E02D73010F8518899201A40155
:1017A000898D9A8D1995A9CFF90134969491329724
:1017B00045915491D91AB7E0DB9E400D511D11247B
:1017C000F901259134913C8B2B8BFA0125903490B3
:1017D000FA013296749031963491398B3296649036
:1017E0003196449041E04C1518F04A1508F07FC03E
:1017F000662D062C000C770B7C836B83842D042CC8
:10180000000C990B9E838D83A98DBA8DED91FC916F
:1018100011970284F385E02DCD011995512CD12C1F
:10182000C12CEA2DF0E0FA87E9872B2D30E03C87C8
:101830002B87A401440D511D47FC5A95588F4F8B9F
:1018400069817A81660D711D67FC7A957E876D8747
:101850007989C71608F051CF2C2D30E04D815E817B
:10186000420F531FA985BA854A9FC0014B9F900D17
:101870005A9F900D1124FC01E80DF91DF88BEF879C
:10188000852D612C4F89588D420F531F5E8B4D8BD8
:10189000671408F050C044244394480E877041F404
:1018A000C1010196EB89FC89E20DF31DD4901C0166
:1018B000D7FE19C0A98DBA8DED91FC91662D70E00F
:1018C000B1E0BB1219C0AB1217C02D853E85620F67
:1018D000731F0484F585E02D2F8138854D895E893D
:1018E000898D9A8D1995DD0C6394842DD1CF1E823C
:1018F0001D821C821B8288CF4B815C81640F751F07
:10190000AB85BC856A9FC0016B9F900D7A9F900D3F
:10191000112469817A81680F791F0684F785E02D8B
:10192000EF80F88409851A859D014F855889898D36
:101930009A8D1995D8CF570CC3948ACF6A960FB653
:10194000F894DEBF0FBECDBFDF91CF911F910F91F5
:10195000FF90EF90DF90CF90BF90AF909F908F90CF
:101960007F906F905F904F903F902F9008958F924F
:101970009F92AF92CF92EF92FF920F931F93CF93CC
:10198000DF93EC01262F898D9A8D009709F051C0C5
:101990006A30D1F41D861C868D8948E0849F9001B1
:1019A00011248E859F85820F931F9F878E8781E0EC
:1019B00090E0DF91CF911F910F91FF90EF90CF902A
:1019C000AF909F908F9008956D3089F3CC88AD884B
:1019D0008F898823C1F08C859D8536E0C39E800D5C
:1019E000911D1124488559854817590764F44E857F
:1019F0005F851D861C8638E0A39EC0011124840FDC
:101A0000951F9F878E87EA88FB88088919894E85EC
:101A10005F856C857D85CE010E94920A2C898C851C
:101A20009D8546E0249F800D911D11249D878C8704
:101A3000BECF6A3069F41D861C86FC013896E4919D
:101A40002D898E859F85E29F800D911D1124ADCF3C
:101A50006D3009F4ACCFFC0134963491631708F46F
:101A6000A6CF3296E491E61708F4A1CFFC01329696
:101A700085909490462F431B342F47E0349F800C71
:101A8000911C1124F401329634913196E491332360
:101A9000A9F1EE2399F1CC88F4013596E491AD8853
:101AA0004F89442301F10E2E000CFF0BE30FF11DB3
:101AB000CE9EA001CF9E500D11246C857D85460FD2
:101AC000571F68857985641775076CF44E855F85A7
:101AD0001D861C86FC013896E491AE9E400D511D7A
:101AE00011245F874E87EA88FB88088919894E850B
:101AF0005F856C857D85CE010E94920AF401349643
:101B0000E4912C898C859D85E29F800D911D112487
:101B10008DCF6F927F928F929F92AF92BF92CF9212
:101B2000DF92EF92FF920F931F93CF93DF93EC011D
:101B30006B015A0139014801E881F9810284F3857A
:101B4000E02D1995E881F9810288F389E02D87015C
:101B50009301A501B601CE011995A501480D591DA6
:101B600041505109E881F9810288F389E02D930100
:101B7000B601CE011995E881F9810088F189E02D3F
:101B80009401A501B601CE011995C60CD71CB6016A
:101B900061507109E881F9810088F189E02D940193
:101BA000A501CE011995E881F9810688F789E02D14
:101BB000CE01DF91CF911F910F91FF90EF90DF90B9
:101BC000CF90BF90AF909F908F907F906F9019941F
:101BD0006F927F928F929F92AF92BF92CF92DF923D
:101BE000EF92FF920F931F93CF93DF935C01EB0172
:101BF0006A01490138018701DC01ED91FC9162170E
:101C0000730719F5641675062CF0962D872D3A0189
:101C1000C92ED82E9601261937092F5F3F4F048C05
:101C2000F58DE02DA301BE01C5011995DF91CF917E
:101C30001F910F91FF90EF90DF90CF90BF90AF90EA
:101C40009F908F907F906F9008954615570591F45F
:101C50002617370724F0892D4B01C22FD82F9E015C
:101C6000281939092F5F3F4F068CF78DE02DA6010B
:101C7000B401DACF0284F385E02D1995D501ED91F9
:101C8000FC910488F589E02D83019401A601BE0131
:101C9000C5011995D501ED91FC910688F789E02DD4
:101CA000C501DF91CF911F910F91FF90EF90DF90D1
:101CB000CF90BF90AF909F908F907F906F9019942E
:101CC000EF92FF920F931F93DC011A960D911C91D6
:101CD0001B9718962D913C911997ED91FC9100A0BE
:101CE000F1A1E02D7B0150E040E070E060E019954B
:101CF0001F910F91FF90EF9008954F925F926F9216
:101D00007F928F929F92AF92BF92CF92DF92EF928B
:101D1000FF920F931F93CF93DF936C012B015A0116
:101D200039014801DC01ED91FC910284F385E02D3D
:101D30001995E201640C751CD601ED91FC91C61554
:101D4000D7055CF40088F189E02D87019401A50195
:101D5000BE01C60119952196EFCF0688F789E02DBF
:101D6000C601DF91CF911F910F91FF90EF90DF900F
:101D7000CF90BF90AF909F908F907F906F905F902B
:101D80004F9019948F929F92AF92BF92CF92DF9211
:101D9000EF92FF920F931F93CF93DF93EC015B01C0
:101DA0004A016901E881F9810284F385E02D1995E2
:101DB00095012C0D3D1D21503109E881F9810488E0
:101DC000F589E02D78018401A401B501CE011995B2
:101DD000E881F9810688F789E02DCE01DF91CF9166
:101DE0001F910F91FF90EF90DF90CF90BF90AF9039
:101DF0009F908F9019948F929F92AF92BF92CF92A3
:101E0000DF92EF92FF920F931F93CF93DF93EC013A
:101E10005B014A0169017801E881F9810284F38557
:101E2000E02D1995C80CD91C860101501109E881D3
:101E3000F9810488F589E02D9501A401B501CE0151
:101E40001995E881F9810688F789E02DCE01DF91A7
:101E5000CF911F910F91FF90EF90DF90CF90BF90A7
:101E6000AF909F908F901994EF92FF920F931F93D2
:101E7000DC01ED91FC9100A0F1A1E02D19951F91DD
:101E80000F91FF90EF9008950F931F93DC01ED9158
:101E9000FC91068CF78DE02D19951F910F910895F7
:101EA0000F931F93DC01ED91FC91048CF58DE02DD7
:101EB00019951F910F910895DC01ED91FC9100841B
:101EC000F185E02D19942F923F924F925F926F927D
:101ED0007F928F929F92AF92BF92CF92DF92EF92BA
:101EE000FF920F931F93CF93DF9300D000D0CDB715
:101EF000DEB73C016A013E832D83FC82EB825801F0
:101F0000A41AB50AB7FE03C0B194A194B1088D809C
:101F10009E80861A970A97FE03C091948194910837
:101F20008A149B045CF0902F812F0D811E819D836C
:101F30008E839C2D8D2D6B01692F782F0C151D051F
:101F40005CF09D818E817E836D83692F782F902F29
:101F5000812F8601C92ED82E1601201A310A2B0195
:101F60002D813E81421A530A57FE03C05194419479
:101F70005108710137FE03C03FEFE31AF30AF594ED
:101F8000E7948D819E81861797075CF5A1E0B0E00C
:101F9000BA83A983C016D1064CF1D301ED91FC910F
:101FA0000484F585E02D2B813C81A8016D817E8123
:101FB0008A149B041CF04D815E81B801C301199500
:101FC000E418F508F7FE0AC02D813E8189819A81C7
:101FD000280F391F3E832D83E20CF31C0F5F1F4F28
:101FE000D9CF2FEF3FEF3A832983D4CF26960FB670
:101FF000F894DEBF0FBECDBFDF91CF911F910F913F
:10200000FF90EF90DF90CF90BF90AF909F908F9018
:102010007F906F905F904F903F902F900895EF9238
:10202000FF920F931F93CF93DF93EC01EC80FD8021
:102030006E157F050CF070C057FF04C0240F351FCC
:1020400050E040E08E819F81FA01E20FF31F8E176E
:102050009F071CF49C01241B350B121613060CF071
:102060005BC0922F842F8695869586958E9DD00194
:102070008F9DB00D11246A0F7B1FAF8DB8A1A60FE5
:10208000B71F477049F188E0841B482F682F70E024
:10209000FB01EB53FE4FE491281708F063C0621B6D
:1020A00071092FEF30E002C0359527956A95E2F768
:1020B000E2230130110539F0B0F10230110561F56C
:1020C0008C91E82702C08C91E82BEC93941720F1B7
:1020D0002C813D81A20FB31FE92FE41BE83078F07B
:1020E0000230110521F58E2F9C9190959C932C81A7
:1020F0003D81A20FB31F88508830B0F7E770EE2300
:1021000059F0F0E0E354FE4FE49101301105F9F08D
:1021100010F10230110519F1DF91CF911F910F914C
:10212000FF90EF900895E0958C91E823CECF81E069
:102130000115110509F480E081959E2F8C932C8167
:102140003D81A20FB31F98509830C0F7D7CF8C9124
:10215000E82BEC93E1CFE0958C91E823FACF8C91BA
:10216000E827F7CF0130110509F4ADCFE0F20230D6
:10217000110509F4A5CFAE0DBF1DAECF0F931F9370
:10218000CF93DF9377FF04C0260F371F70E060E026
:10219000DC011496CD91DC91FB01E20FF31FCE1709
:1021A000DF071CF49E01261B370B121613064CF595
:1021B000FA0157FD3796A3E0F595E795AA95E1F763
:1021C000EC9FD001ED9FB00DFC9FB00D11246A0F64
:1021D0007B1FDC015F96ED91FC91E60FF71F4770C6
:1021E000552781E090E001C0880F4A95EAF7482F13
:1021F0000130110559F0A8F02E0F3F1F02301105D4
:10220000E1F0DF91CF911F910F9108952E0F3F1FA5
:10221000E217F307B1F38191DF011197842B8C93BF
:10222000F7CF80952E0F3F1FE217F30751F39191DF
:10223000DF01119798239C93F7CFE217F30709F377
:102240008191DF01119784278C93F7CF0F931F9310
:10225000FA01DC0156964C9156974230E9F0433032
:10226000A1F1413061F514964D915C91DA01AE1BFC
:10227000BF0BFD01E21BF30B77FD0BC0DC011696D3
:102280004D915C916417750724F4AB01BF010E9466
:10229000BE101F910F91089514964D915C91DA0133
:1022A000A61BB70BBD0161507109DC0116964D915B
:1022B0005C91DA01AE1BBF0BFD01E21BF30B77FD56
:1022C000E8CFAF010E940F10E4CF16964D915C91BC
:1022D000DA01A61BB70BBD0161507109CDCF0F9379
:1022E0001F93FA01DC0156964C9156974230A9F0A3
:1022F000433091F1413019F514964D915C91DA011A
:10230000AE1BBF0BFD013197F7FD04C0AB01BF0150
:102310000E940F101F910F91089514964D915C919A
:10232000DA01A61BB70BBD01DC0116964D915C913D
:10233000DA01AE1BBF0BFD013197621B730BF7FD7A
:10234000E9CFDC0116964D915C91E417F50714F77F
:10235000AF010E94BE10DECF16964D915C91DA015E
:10236000A61BB70BBD01621B730BCECFFC0177FD23
:1023700064C080859185681779070CF05EC057FDB1
:102380005CC082859385481759070CF056C0868932
:102390008230B1F0833029F1813041F4848195811C
:1023A000841B950BAB01BC016150710921303105D3
:1023B00009F108F443C02230310509F463C00895DF
:1023C00084819581DC01A61BB70BBD0161507109A9
:1023D00086819781DC01A41BB50BAD0141505109E9
:1023E000E5CF86819781861B970BBA01AC014150DE
:1023F0005109DCCFCA0157FD0796A3E09595879553
:10240000AA95E1F7A481B5818A9F90018B9F300D39
:102410009A9F300D1124620F731F078CF0A1E02DDD
:10242000E60FF71F4770552721E030E001C0220F6B
:102430004A95EAF78081822B80830895CA0157FD6F
:10244000079633E0959587953A95E1F7A481B58194
:102450008A9F90018B9F300D9A9F300D1124620F3F
:10246000731F078CF0A1E02DE60FF71F477055276B
:1024700081E090E001C0880F4A95EAF7809590814D
:102480008923DACFCA0157FD079623E095958795F2
:102490002A95E1F7A481B5818A9F90018B9F300D29
:1024A0009A9F300D1124620F731F078CF0A1E02D4D
:1024B000E60FF71F4770552721E030E001C0220FDB
:1024C0004A95EAF780818227B7CF08958EBD000034
:1024D0000DB407FEFDCF8EB508958CBD9DBD08954A
:1024E00020915504260F3327331F21323105ECF498
:1024F00020917904FC0190E080E0243069F082E0D2
:102500000895A09155042191AC014B5C5B4FA40F41
:10251000B52FB11D2C930196861798F38091550421
:10252000680F6093550480E0089581E0089510924B
:10253000790481E080937B0410927A0461E084E165
:102540000E941B0961E085E10E941B09E9EBF0E0B4
:1025500080818E7F808380818D7F808388E48093DB
:10256000B80085E48093BC000895CF93DF9391E099
:10257000909334048823B9F0C091B800D091BA0088
:102580008091BC008A7B8093BC0060E084E10E9463
:102590001B0960E085E10E941B090E949712D093FD
:1025A000BA00C093B800DF91CF910895E091B404D0
:1025B0008091B304E81730F4F0E0E15FFB4F8081D5
:1025C00090E008958FEF9FEF08959091B40480916B
:1025D000B3042FEF3FEF981748F4E92FF0E0E15FE5
:1025E000FB4F208130E09F5F9093B404C9010895B0
:1025F0008091B3049091B404891B990B0895CF92F4
:10260000DF92EF92FF920F931F93CF93DF937C01A2
:10261000CB018A012091A004222389F0EB016B01F8
:10262000C40ED51ECC15DD0569F06991D701ED9179
:10263000FC910190F081E02DC7011995F3CF642F33
:102640000E947012C801DF91CF911F910F91FF90EE
:10265000EF90DF90CF900895CF93DF931F92CDB787
:10266000DEB769832091A0042223F9F02091B10400
:10267000203258F021E030E0FC013383228390E0E7
:1026800080E00F90DF91CF9108958091B204E82F00
:10269000F0E0E151FC4F998190838F5F8093B20409
:1026A0008093B10481E090E0ECCF61E0CE0101962F
:1026B0000E947012F7CFCF92DF92EF92FF920F93AA
:1026C0001F93CF93DF93D091B10481E0D13208F012
:1026D0009CC0C0919F040E94B5096B017C01809150
:1026E000790481116CC082E08093790481E0809349
:1026F0007B048FEF8093780410929D04D0939C0408
:10270000AFEEB3E0ECE7F4E080E0D8138DC01092B8
:102710009E0480919E04CC0FC82BC0939E04809190
:102720007A04813009F084C010927A040E94B509BD
:102730006B017C0180919E048093BB0080913004EA
:1027400090913104A0913204B0913304892B8A2BEB
:102750008B2BA1F00E94B509009130041091310437
:1027600020913204309133046C197D098E099F0940
:10277000061717072807390708F442C08091BC00E4
:1027800083FDD8CF85EC8093BC000E94B5096B0116
:102790007C0180917904823009F44CC080917804E6
:1027A0008F3F09F469C080917804803209F466C0D3
:1027B00080917804803309F463C084E026C080915E
:1027C000300490913104A0913204B0913304892BEC
:1027D0008A2B8B2B09F483CF0E94B509009130041A
:1027E0001091310420913204309133046C197D0929
:1027F0008E099F09061717072807390708F06FCFBA
:1028000080912F040E94B51285E01092B2041092BC
:10281000B1041092A004DF91CF911F910F91FF900E
:10282000EF90DF90CF9008959D9191938F5F6DCF42
:1028300085EEA9CF8091300490913104A0913204AB
:10284000B0913304892B8A2B8B2B09F4A2CF0E94E1
:10285000B509009130041091310420913204309177
:1028600033046C197D098E099F090617170728077D
:10287000390708F08ECFC4CF80E0C7CF82E0C5CF44
:1028800083E0C3CFCF92DF92EF92FF920F931F931B
:10289000CF93DF93EC016B01142F8D8D9E8D0097EC
:1028A00009F454C029A131E03093A00420939F047F
:1028B0001092B2041092B104DC01ED91FC910190F0
:1028C000F081E02D60E019957601CC24C394D12CE1
:1028D00001E011508D8D9E8D1F3F71F1B0E2CB163E
:1028E000D104C0F00E945B138D8D9E8D29A10093B1
:1028F000A00420939F041092B2041092B104DC0152
:10290000ED91FC910190F081E02D60E01995CC24CF
:10291000C394D12C8D8D9E8DF7016491DC01ED91D6
:10292000FC910190F081E02D1995BFEFCB1ADB0AE5
:10293000EFEFEE1AFE0ACDCFDF91CF911F910F91ED
:10294000FF90EF90DF90CF900C945B13EDA5FEA568
:1029500090818BA98095892380837B01115070F130
:10296000F70184912B8D3C8D232B31F00E94661250
:10297000FFEFEF1AFF0AF2CF28E030E040E8E9A5C8
:10298000FAA599A9582F5423A9F05081952B90832B
:10299000EBA5FCA590815AA9952B9083EBA5FCA5EE
:1029A00050819AA99095952390834695215031099D
:1029B00031F7DECF508190959523E9CFDF91CF910C
:1029C0001F910F91FF90EF90DF90CF9008951F938C
:1029D000CF93DF93EC018D8D9E8D009721F1162F03
:1029E00029A131E03093A00420939F041092B204F7
:1029F0001092B104DC01ED91FC910190F081E02D89
:102A000060E019958D8D9E8DDC01ED91FC9101901A
:102A1000F081E02D612F19958D8D9E8DDF91CF91E5
:102A20001F910C945B13ADA5BEA59C918BA98095BD
:102A300089238C938B8D9C8D892B31F0862FDF9190
:102A4000CF911F910C94661228E030E080E8A9A590
:102A5000BAA599A9462F4823C1F04C91942B9C9379
:102A6000ABA5BCA59C914AA9942B9C93ABA5BCA5F6
:102A70004C919AA9909594239C9386952150310965
:102A800031F7DF91CF911F9108954C919095942348
:102A9000E6CF1F93CF93DF93EC01162F8D8D9E8D84
:102AA000892BB1F12DA93EA94FA958AD60E074E280
:102AB00084EF90E00E945D2A2051310941095109BB
:102AC00056954795379527952093B80066EA1111DA
:102AD00067EACE010E94E7148D8D9E8D892B41F10E
:102AE00029AD3AAD4BAD5CAD60E074E284EF90E0AF
:102AF0000E945D2A20513109410951095695479597
:102B0000379527952093B800DF91CF911F910895B5
:102B10008B8D9C8D892B21F08EAD9FAD0E946D1207
:102B2000EFA5F8A990818CA9809589238083CECFC9
:102B3000EFA5F8A980819CA9892B8083E5CFBF925E
:102B4000CF92DF92EF92FF920F931F93CF93DF9379
:102B5000EC018D8D9E8D892B09F484C02DA93EA991
:102B60004FA958AD60E074E284EF90E00E945D2AC6
:102B700020513109410951095695479537952795B7
:102B80002093B80045E068EB71E0CE010E9442144A
:102B90006C816150CE010E94E7142E813F81C901F2
:102BA000079697FD079633E0959587953A95E1F757
:102BB0002C813D81829F7001839FF00C929FF00CCD
:102BC00011240F8D18A18D8D9E8DE00EF11E0097A2
:102BD00009F47DC029A131E03093A00420939F0423
:102BE0001092B2041092B104DC01ED91FC910190BD
:102BF000F081E02D60E41995CC24C394D12CBB2442
:102C0000B3948D8D9E8DE016F106E1F1B0E2CB1606
:102C1000D104C0F00E945B138D8D9E8D29A1B092CE
:102C2000A00420939F041092B2041092B104DC011E
:102C3000ED91FC910190F081E02D60E41995CC2498
:102C4000C394D12C8D8D9E8DF80161918F01DC0193
:102C5000ED91FC910190F081E02D1995BFEFCB1A19
:102C6000DB0ACFCF8B8D9C8D892B21F08EAD9FAD54
:102C70000E946D12EFA5F8A990818CA980958923F7
:102C8000808380CF0E945B138D8D9E8D892B09F4EC
:102C900053C029AD3AAD4BAD5CAD60E074E284EF5A
:102CA00090E00E945D2A2051310941095109569551
:102CB0004795379527952093B800DF91CF911F91C5
:102CC0000F91FF90EF90DF90CF90BF900895EDA50A
:102CD000FEA580819BA9892B8083E016F106A1F2D5
:102CE000F80181918F012B8D3C8D232B19F00E94CF
:102CF0006612F3CF28E030E040E8E9A5FAA599A9EB
:102D0000582F5423A9F05081952B9083EBA5FCA557
:102D100090815AA9952B9083EBA5FCA550819AA987
:102D200090959523908346952150310931F7D5CF61
:102D3000508190959523E9CFEFA5F8A980819CA9B2
:102D4000892B8083BACF90E080E008950895EF92B8
:102D5000FF920F931F93CF93DF9300D01F92CDB7B5
:102D6000DEB780E695E00E948D0780E695E00E9440
:102D70008D078E010F5F1F4F78018A3341F0F801F4
:102D800081938F0180E695E00E948D07F6CFC70101
:102D90000E94372A182F80E695E00E948D07805305
:102DA000990B8230910520F4682F812F0E941B0916
:102DB00080E695E00E948D078A3011F08D30C1F7D2
:102DC00080E695E00E94A1078A3021F480E695E034
:102DD0000E948D070F900F900F900F90DF91CF9171
:102DE0001F910F91FF90EF90089584EF91E0A0E084
:102DF000B0E08093170690931806A0931906B0933D
:102E00001A0610921B0610921C0610921D061092B4
:102E10001E0680910F0690911006A0911106B091A8
:102E200012068093130690931406A0931506B09390
:102E300016060E940C0A60930F067093100680938A
:102E400011069093120680E695E00E94A107843651
:102E500011F40C94A716089580E695E00E94A1074E
:102E6000843611F40E94A7160E940C0A60930F0684
:102E70007093100680931106909312060895CF93D5
:102E8000DF93C62F60E08BE00E941B09D8E06C2F17
:102E9000661F6627661F8CE00E941B09CC0F61E04D
:102EA00089E00E941B0960E089E00E941B09D15063
:102EB00071F761E08BE0DF91CF910C941B09FB016E
:102EC00001900020E9F73197AF01461B570BDC0159
:102ED000ED91FC910280F381E02D19948F929F92E5
:102EE000AF92BF92EF92FF920F931F93CF93DF9316
:102EF000CDB7DEB7A1970FB6F894DEBF0FBECDBF3A
:102F00007C01FA01CB0119A2223008F42AE08E01DB
:102F10000F5D1F4F822E912CB12CA12CBF01A5015A
:102F200094010E945D2AF901CA016A300CF5605DC6
:102F3000D8016E938D01232B242B252B79F790E05C
:102F400080E0109721F0BD01C7010E945F17A19694
:102F50000FB6F894DEBF0FBECDBFDF91CF911F91AA
:102F60000F91FF90EF90BF90AF909F908F9008953A
:102F7000695CDECF482F50E070E060E02AE080E638
:102F800095E00C946E17AB01770F660B770B2AE078
:102F90000C946E17BC0180E695E00C945F17CF92FD
:102FA000DF92EF92FF92CF93DF93C82F0E940C0A1B
:102FB0006B017C018FE692E00E94CA178C2F0E9461
:102FC000BA1786E792E00E94CA172AE0B701A60165
:102FD00080E695E00E946E1788E792E00E94CA178B
:102FE000C9E0D6E08E819F81A885B985B701A60189
:102FF000481B590B6A0B7B0B2AE080E695E00E9488
:103000006E1788E792E00E94CA174E815F8168853B
:1030100079858A859B85AC85BD85481B590B6A0BD4
:103020007B0B2AE080E695E0DF91CF91FF90EF9057
:10303000DF90CF900C946E170F931F93CF93DF9375
:103040008C01D0E0C0E06115710519F00E945F1796
:10305000EC016AE772E0C8010E945F178C0F9D1FA8
:10306000DF91CF911F910F9108950E94BA2AFC0120
:10307000868197819C01295F3F4F37FF02C0295FFE
:103080003F4F83E0359527958A95E1F784819581B7
:10309000289FA001299F500D389F500D112470E0EA
:1030A00060E0878D90A10C94BF2A8F929F92AF927F
:1030B000BF92CF92DF92EF92FF920F931F93CF9325
:1030C000DF93EC01062FCC24C3948C89861301C0B6
:1030D000C12C0C8BE880F980D7018D919C910E94C6
:1030E0003718D701ED91FC91158614861786168640
:1030F000D12C35E1B32E0C0F1D2F111D08561E4F7C
:1031000040E2A42E7E01BEE5EB1ABEEFFB0A5CE3B3
:10311000952E6DE3862E2C8930E0A881B981FE01C1
:10312000E20FF31FE157FE4F8081D81640F58D2D39
:1031300090E0B29EF001B39EF00D1124E80FF91F4C
:10314000EE0FFF1FEC0FFD1F65897689F8012081C6
:10315000022E000C330B8217930771F4F701808164
:10316000FB01882339F0848A8D919C910E941C1860
:10317000D394D1CF948AF8CFFB01A48AF5CF8D9157
:103180009C910E949F158C2DDF91CF911F910F91E3
:10319000FF90EF90DF90CF90BF90AF909F908F9077
:1031A0000895CF93DF93FC01A589B689EC01CF5533
:1031B000DE4F88818823B1F184858C93A589B689F7
:1031C000858511968C93A589B689868512968C93F0
:1031D000A589B689878513968C93A589B689808938
:1031E00014968C93A589B689818915968C93A589A7
:1031F000B689828916968C93A281B381A659BF4F56
:103200001C92F894809171008D7F80937100789466
:10321000888191E0892788836489CF01DF91CF91EC
:103220000C94551884818C93A589B6898581119653
:103230008C93A589B689868112968C93A589B689C7
:10324000878113968C93A589B689808514968C9373
:10325000A589B689818515968C93A589B6898285BD
:1032600016968C9342815381CA0186599F4F21E063
:10327000DC012C93F89411978C9181508C93809160
:1032800071008260C2CFCF92DF92EF92FF920F93D4
:103290001F93CF93DF936B017C0181E8C816D104A3
:1032A000E104F10408F463C0C7E0D0E0B701A6016F
:1032B0000C2E04C076956795579547950A94D2F7DA
:1032C00040FF4EC0C7506C2F8091B7049091B80456
:1032D0000E9455188111D0C00E94F51680E00E940E
:1032E0003F0A882381F088E00E94CF178DE792E0A3
:1032F0000E94CA178C2F0E94BA176FE772E080E60F
:1033000095E00E941C1862E070E080E090E00E946E
:10331000180A0E942C178091B7049091B804FC0100
:103320006489AC01460F511DFA01E856FE4F208119
:103330002F5F2083022E000C330B41575E4FDA01C2
:103340004C914217130609F00CF41082DF91CF91D3
:103350001F910F91FF90EF90DF90CF900C94551834
:103360002196C031D10509F0A1CFC1E0ACCFD70182
:10337000CB010197A109B10980389105A105B105DB
:1033800008F07AC0C091B504D091B60488819981C3
:103390000E94371888819981FC011586148617864A
:1033A000168666E872E00E941C1810E000E08A8130
:1033B0009B81081719070CF04FC0C8018770992727
:1033C000892B31F46AE772E0888199810E945F1746
:1033D000D701C601002E04C0B695A795979587958D
:1033E0000A94D2F770E060E080FF25C00E94F516D5
:1033F00080E00E943F0A8823A1F083E00E94CF175B
:103400008DE792E00E94CA172AE0B701A60180E684
:1034100095E00E946E176FE772E080E695E00E94EB
:103420001C1862E070E080E090E00E94180A0E94A0
:103430002C1761E070E0888199810E94C317888110
:103440009981DC01ED91FC910190F081E02D60E229
:1034500019950F5F1F4FABCF888199810E949F15EF
:10346000C701B601DF91CF911F910F91FF90EF90AF
:10347000DF90CF900C943F17DF91CF911F910F9168
:10348000FF90EF90DF90CF90089585ED8093BC0082
:103490008091300490913104A0913204B0913304B2
:1034A0000796A11DB11D23E0B695A7959795879521
:1034B0002A95D1F72091BC0024FD03C01092790415
:1034C000089540913004509131046091320470911C
:1034D0003304452B462B472B69F30097A105B10513
:1034E00041F02AE22A95F1F700C00197A109B1093C
:1034F000E1CF80912F040C94B512EF92FF920F93BD
:103500001F93CF93DF9300D01F92CDB7DEB78C010E
:10351000F42EE22E1F926F938EE892E09F938F938A
:10352000CE0101969F938F930E94C62AEF2DF0E063
:103530002E2D30E08981EE0FFF1FE00FF11FA589CE
:10354000B689A20FB31F8C938A81A589B689A20F71
:10355000B31F11968C934B8185899689280F391F4B
:10356000F90142830F900F900F900F900F900F90E2
:103570000F900F900F900F90DF91CF911F910F91AF
:10358000FF90EF900895EF92FF920F931F93CF93C8
:103590008C01FC01E280F380F701EC58FF4FC08101
:1035A0006F3F7F4FE1F5C250C083F701E359FF4FF2
:1035B00040815181C49FC001C59F900D11246CE3CF
:1035C00070E00E947F2A359671836083E5E7EE0EF6
:1035D000F11C9B0150E040E064E274EF80E090E079
:1035E0000E94932AF7012083318342835383F89406
:1035F000808191819093990080939800789424E041
:1036000041E06C2FC8010E947D1AF8016489C8014D
:10361000CF911F910F91FF90EF900C945518CE5FB2
:10362000C3CFE091B704F091B8040897D1F4148A9D
:10363000DF01A856BE4F8C9137FF0AC0811103C02D
:10364000CF010C94D1186FEF7FEF813039F00895DE
:103650008823B1F38130D9F761E070E0CF010C9499
:10366000C31A61E0CF010C9455181F920F920FB648
:103670000F9211240BB60F922F933F934F935F93AA
:103680006F937F938F939F93AF93BF93EF93FF932A
:1036900083EC94E00E94CF07FF91EF91BF91AF912F
:1036A0009F918F917F916F915F914F913F912F915A
:1036B0000F900BBE0F900FBE0F901F9018951F928A
:1036C0000F920FB60F9211240BB60F922F938F9378
:1036D0009F93EF93FF93E091D304F091D404808102
:1036E000E091D904F091DA0482FD1DC090818091AF
:1036F000DC048F5F8F732091DD04821741F0E0912D
:10370000DC04F0E0ED53FB4F958F8093DC04FF91D8
:10371000EF919F918F912F910F900BBE0F900FBE45
:103720000F901F9018958081F2CF1F920F920FB6C5
:103730000F9211240BB60F922F933F934F935F93E9
:103740006F937F938F939F93AF93BF93EF93FF9369
:1037500080E695E00E94CF07FF91EF91BF91AF9176
:103760009F918F917F916F915F914F913F912F9199
:103770000F900BBE0F900FBE0F901F9018951F92C9
:103780000F920FB60F9211240BB60F922F938F93B7
:103790009F93EF93FF93E0917005F0917105808105
:1037A000E0917605F091770582FD1DC090818091B2
:1037B00079058F5F8F7320917A05821741F0E09130
:1037C0007905F0E0E05AFA4F958F80937905FF91E3
:1037D000EF919F918F912F910F900BBE0F900FBE85
:1037E0000F901F9018958081F2CF1F920F920FB605
:1037F0000F9211242F933F938F939F93AF93BF9377
:103800008091A2049091A304A091A404B091A50476
:103810003091A10423E0230F2D3758F50196A11D07
:10382000B11D2093A1048093A2049093A304A093BC
:10383000A404B093A5048091A6049091A704A0913C
:10384000A804B091A9040196A11DB11D8093A604FE
:103850009093A704A093A804B093A904BF91AF913B
:103860009F918F913F912F910F900FBE0F901F90BE
:10387000189526E8230F0296A11DB11DD2CF1F92E5
:103880000F920FB60F9211240BB60F922F933F9306
:103890004F935F936F937F938F939F93AF93BF9358
:1038A000EF93FF938091B900887F803609F44DC073
:1038B00008F040C0883209F4A9C028F5803109F425
:1038C0009DC0C8F4882309F4FBC0883009F496C071
:1038D000FF91EF91BF91AF919F918F917F916F91E8
:1038E0005F914F913F912F910F900BBE0F900FBEA4
:1038F0000F901F901895883109F488C0803241F7E5
:103900008093780414C0803409F49DC040F480335F
:10391000B9F38833E9F68093780485ECB0C080353C
:1039200009F485C0883509F496C0883489F60E9468
:10393000451ACECF883909F48CC038F5883729F07C
:1039400050F4883611F0803719F683E080937904BB
:103950001092770457C0883809F47BC0803919F079
:10396000803809F0B5CF80917704803208F071C0BB
:10397000E091770481E08E0F809377048091BB0003
:10398000F0E0E95AFB4F80833DC0803B39F0E0F422
:10399000803A09F479C0883A09F09ACF84E080939C
:1039A00079041092560410925504E091AF04F091FE
:1039B000B00419958091550481110FC081E0809366
:1039C00055041092350409C0803C09F4A6CF883C08
:1039D00009F4A3CF883B09F07BCFE091560481E046
:1039E0008E0F80935604F0E0EB5CFB4F8081809358
:1039F000BB00909156048091550429C080919E048B
:103A00008093BB0085EC8093BC0062CF90919D04B5
:103A100080919C04981758F5E0919D0481E08E0FE9
:103A200080939D04F0E0E458FB4F8081E9CFE09162
:103A30009D0481E08E0F80939D048091BB00F0E097
:103A4000E458FB4F808390919D0480919C049817CB
:103A5000C8F285E8D8CFE0919D0481E08E0F809375
:103A60009D048091BB00F0E0E458FB4F808380917F
:103A70007B0481115CCF81E080937A0484EA809397
:103A8000BC001092790424CF85EC8093BC00109286
:103A9000790480917704803230F4E0917704F0E08B
:103AA000E95AFB4F10826091770470E0E091AD0419
:103AB000F091AE0487E594E019951092770408CF51
:103AC0001092780434CF1F920F920FB60F921124E8
:103AD0000BB60F920F931F932F933F934F935F93C8
:103AE0006F937F938F939F93AF93BF93CF93DF9306
:103AF000EF93FF93C091AA04D091AB048E010F58AD
:103B00001F4FF80180818150808381111BC0DE012D
:103B1000A759BF4F8C913597908189132AC01C9269
:103B2000FE01E758FF4F0190F081E02D8C9119952F
:103B3000FE01E159FF4F8081F8018083CE59DF4FAC
:103B400081E08883FF91EF91DF91CF91BF91AF9199
:103B50009F918F917F916F915F914F913F912F91A5
:103B60001F910F910F900BBE0F900FBE0F901F90E3
:103B700018958F5F8C93D4CFCF93DF93E3ECF4E071
:103B80001382128288EE93E0A0E0B0E084839583F4
:103B9000A683B7832FE432E0318320834DEC50E0DD
:103BA000558744874CEC50E05787468748EC50E0F7
:103BB000518B408B49EC50E0538B428B4AEC50E0E8
:103BC000558B448B4EEC50E0578B468B118E128EEA
:103BD000138E148EE0E6F5E01382128284839583BF
:103BE000A683B7833183208325EC30E03587248793
:103BF00024EC30E03787268720EC30E0318B208BB7
:103C000021EC30E0338B228B22EC30E0358B248B9F
:103C100026EC30E0378B268B118E128E138E148E8D
:103C2000EDEFF5E01382128284839583A683B78338
:103C300081E692E091838083E9E0F6E016821782C4
:103C400010861186128613861486158616861786A8
:103C5000108A118A128A138A148A158ACFE4D6E050
:103C600084E090E0998388831A821B821C821D82E3
:103C70001E821F82188619861B861A8662E00E94A1
:103C8000490988810E94F2089D878C8788810E945B
:103C9000F2089F878E8788810E94F208998B888B13
:103CA0001C8A1D8A1E8A1F8ADF91CF910895CF93A7
:103CB000DF9300D000D000D01F92CDB7DEB778944C
:103CC00084B5826084BD84B5816084BD85B5826021
:103CD00085BD85B5816085BD80916E0081608093D2
:103CE0006E0010928100809181008260809381003B
:103CF0008091810081608093810000E810E08091D4
:103D000080008160809380008091B1008460809306
:103D1000B1008091B00081608093B00080919100EB
:103D200082608093910080919100816080939100E6
:103D3000809190008160809390008091A1008260CA
:103D40008093A1008091A10081608093A100809167
:103D5000A00081608093A000809121018260809307
:103D600021018091210181608093210180912001B6
:103D700081608093200180917A00846080937A0032
:103D800080917A00826080937A0080917A008160CD
:103D900080937A0080917A00806880937A001092F4
:103DA000C10010924B0610924C0610924D061092D4
:103DB0004E0610920B0610920C0610920D061092F1
:103DC0000E0668EB7BE080E090E00E94180A68EE47
:103DD00073E080E090E00E94DA0940E052EC61E09C
:103DE00070E080E695E00E9484060E940C0A6093D1
:103DF0000B0670930C0680930D0690930E0681E9D6
:103E000092E00E94CA176AE070E080E090E00E94B1
:103E1000180ADD24D394D0921F060E940C0A6093E6
:103E20000B0670930C0680930D0690930E0682EAA3
:103E300092E00E94CA1740E052EC61E070E080E638
:103E400095E00E9484068CE390E00E9412299A83F8
:103E50008983DC0152961D921D921D921C925597EA
:103E6000FC01769684E2DF011D928A95E9F78BE1E9
:103E700090E00E9412297C0142E350E064E370E08C
:103E80000E948509E981FA81F182E0828BE190E06C
:103E90000E9412297C014EE250E060E370E00E9433
:103EA0008509A981BA811396FC92EE9212978BE153
:103EB00090E00E9412297C014AE250E06CE270E03E
:103EC0000E948509E981FA81F582E4828BE190E024
:103ED0000E9412297C0146E250E068E270E00E94F4
:103EE0008509A981BA811796FC92EE9216978BE10B
:103EF00090E00E9412297C0142E250E064E270E00E
:103F00000E948509E981FA81F186E0868BE190E0E3
:103F10000E9412297C014EE150E060E270E00E94B4
:103F20008509A981BA811B96FC92EE921A978BE1C2
:103F300090E00E9412297C014AE150E06CE170E0BF
:103F40000E948509E981FA81F586E4868BE190E09B
:103F50000E9412297C0146E150E068E170E00E9475
:103F60008509A981BA811F96FC92EE921E978BE17A
:103F700090E00E9412297C0143E050E062E070E092
:103F80000E948509E981FA81F18AE08A81E19BE159
:103F900093AF82AFF093C004E093BF0482E190E05E
:103FA0000E941229FC011082118212821382148253
:103FB000158216821782108611861286138617863E
:103FC000168683E499E1918B808BA0E1EA2EF12C97
:103FD000F586E486F093BE04E093BD0484E090E0AF
:103FE0000E9412299A83898380E490E00E9412291A
:103FF000FC01138212821583048380E490E097838E
:1040000086831187008793878287168A1586148690
:1040100017861686D58AD48A8FEF9FEF938B828B73
:10402000918B808BD78A108E128E118E83E192E055
:1040300091838083148E138E8DEF95E0968F858FFC
:1040400010A2178E8FEF84A385A386A387A380A7D2
:1040500080E89AE1A6E0B0E085AB96ABA7ABB0AF45
:1040600080EA96E8A1E0B0E081AF92AFA3AFB4AF31
:1040700080E586AF17AEA981BA811196FC93EE93C5
:104080001396FC92EE921297B093B604A093B504E7
:1040900081E090E00E9412299093BA048093B904C1
:1040A0008BE790E00E9412299A838983FC01B096E5
:1040B00080E4DF011D928A95E9F7E981FA81ED59E3
:1040C000FF4F1082E981FA81EC59FF4F1082E9819C
:1040D000FA81EB59FF4F1082E981FA81EA59FF4FCB
:1040E0001082E981FA81E959FF4F1082E981FA8152
:1040F000E859FF4F1082E981FA81E759FF4F10829A
:10410000E981FA81E659FF4F108209811A8103592A
:104110001F4FF801F182E082E981FA81E159FF4FF6
:1041200084E090E091838083E980FA80F4E7EF0EE9
:10413000F11C88E7D7018C93E981FA81EF58FF4F92
:10414000D082E981FA81EE59FF4F1082C980DA806E
:10415000BBE6CB0ED11C88E0F6018083E981FA81B1
:10416000E459FF4F87E08083E981FA81E758FF4FE8
:1041700086E797E091838083712C552453944424DF
:104180004394D6018C91781608F065C0772009F425
:1041900058C0B1E07B1609F459C0E4E0612C7E12EE
:1041A00004C072E0572EE2E26E2EA72CB12C45011E
:1041B000880C991C880C991C29813A81820E931EC7
:1041C000D40111965C9211976C9213964C921397AE
:1041D00012964C92662099F10E94F51680E00E949A
:1041E0003F0A882321F184E00E94CF178DE792E0F7
:1041F0000E94CA17862D0E94BA178DE792E00E948E
:10420000CA17872D0E94BA178DE792E00E94CA173D
:10421000F40161816A0D7B2D711D80E695E00E949D
:10422000C3176FE772E080E695E00E941C1862E019
:1042300070E080E090E00E94180A0E942C177394AE
:10424000A0CF52E0552E60E2662EAFCF5524539496
:1042500041E2642EAACF69807A807092C204609293
:10426000C1047092AB046092AA0442E15AE760E094
:1042700070E083EC94E00E948406D7014C91F80131
:1042800020813181429FC001439F900D11246CE336
:1042900070E00E947F2AF301EE58FF4F7183608324
:1042A00083010B581F4F1A8309839B0150E040E0A4
:1042B00064E274EF80E090E00E94932AD8012D938D
:1042C0003D934D935C931397F89410929000109245
:1042D000910010929500109294008D919C91909372
:1042E000990080939800809191008860809391005C
:1042F00080919100846080939100789483EA91E0AA
:104300000E9412299A8389830091C1041091C204EA
:10431000E090B504F090B60488E0EDEDF3E0A981FB
:10432000BA81149601900D928A95E1F788E0E5EE46
:10433000F3E0A981BA811C9601900D928A95E1F76C
:10434000E981FA81148A75968AE791E0DF019C0180
:104350001D9221503040E1F789EA92E0A981BA81AB
:1043600056969C938E9355978FEB92E058969C931C
:104370008E93579785ED92E05A969C938E9359971A
:10438000FD01FF962BEE32E031832083329661E00F
:1043900073E071836083329647E153E05183408339
:1043A00032962DE233E031832083329691838083ED
:1043B000B296A3E4B3E0B183A083E981FA81E55921
:1043C000FF4F71836083E981FA81E359FF4F518385
:1043D0004083E981FA81E159FF4F31832083E981EC
:1043E000FA81EF58FF4F91838083E981FA81ED567E
:1043F000FF4FA9E5B3E0B183A083E981FA81EB56D1
:10440000FF4F71836083E981FA81E956FF4F518341
:104410004083E981FA81E756FF4F31832083E981A8
:10442000FA81E556FF4F91838083E981FA81E35455
:10443000FF4FAFE6B3E0B183A083E981FA81E15495
:10444000FF4F71836083E981FA81EF53FF4F5183FE
:104450004083E981FA81ED53FF4F31832083E98165
:10446000FA81EB53FF4F91838083E981FA81E9510F
:10447000FF4FA5E8B3E0B183A083E981FA81E7515A
:10448000FF4F71836083E981FA81E551FF4F5183CA
:104490004083E981FA81E351FF4F31832083E98131
:1044A000FA81E151FF4F91838083E981FA81EF5EC8
:1044B000FE4FABE9B3E0B183A083E981FA81ED5E01
:1044C000FE4F71836083E981FA81EB5EFE4F518379
:1044D0004083E981FA81E95EFE4F31832083E981DF
:1044E000FA81E75EFE4F91838083E981FA81E55C82
:1044F000FE4FA1EBB3E0B183A083E981FA81E35CD5
:10450000FE4F71836083E981FA81E15CFE4F518344
:104510004083E981FA81EF5BFE4F31832083E9819B
:10452000FA81ED5BFE4F91838083E981FA81EB593B
:10453000FE4FA7ECB3E0B183A083E981FA81E9598A
:10454000FE4F71836083E981FA81E759FE4F518301
:104550004083E981FA81E559FE4F31832083E98167
:10456000FA81E359FE4F91838083A981BA81A157D3
:10457000BE4F89E0E6E0F2E001900D928A95E1F706
:10458000E981FA81E856FE4F89E0DF011D928A95A4
:10459000E9F7E981FA81EF55FE4F1082E981FA814E
:1045A000EE55FE4F81E08083E981FA81F182E0825D
:1045B00013830283F801EC58FF4F24E041E060814F
:1045C00089819A810E947D1AA981BA811296ED9102
:1045D000FC911397E759FF4F25E042E06081CD0140
:1045E0000E947D1A69807A807092B8046092B70444
:1045F00061E088E00E94490961E086E00E94490983
:1046000061E087E00E94490960E085E00E94490975
:10461000C090B504D090B604D601AD90BC90F50121
:10462000878D90A1892B41F1C5010E943718D501D2
:1046300016968D919C91179714966D917C9181326D
:1046400091050CF063C1AC014052510957FF02C003
:104650004F5F5F4F559547956357710977FF02C0CC
:104660006F5F7F4F75956795F0E2EF2EF12C03E7B2
:1046700010E02FEF37E062C126813781C90107962C
:1046800097FD079623E0959587952A95E1F7D50143
:1046900014962D913C91FC01E29FC001E39F900D87
:1046A000F29F900D11240E941229D50190969C939F
:1046B0008E935F97892B09F0B7CFF60180819181A6
:1046C0000E943718D601ED91FC9181E0848B858B97
:1046D00081E090E0938B828B918B808B1586148682
:1046E00017861686CF010E949F15F6018081918161
:1046F000DC01ED91FC910680F781E02D199561E0D8
:104700008BE00E94490961E08CE00E94490961E068
:1047100089E00E94490960E070E0CB010E943F17E8
:1047200060E08091B7049091B8040E9455188824E5
:104730008394912C6090C1047090C2047A82698243
:10474000730102E6E00EF11CD7018C91882309F475
:10475000CCC2830107591F4FD801EC91B4E0EB9F05
:10476000F0011124E60DF71DB080F301E559FF4F6C
:104770006F01BB2009F46BC060E983EC94E00E94F8
:10478000F1076B2D83EC94E00E94F10764E683EC63
:1047900094E00E94F1070E94F51680E00E943F0A13
:1047A0008823C1F087E00E94CF178DE792E00E9436
:1047B000CA17D8018C910E94BA178DE792E00E9427
:1047C000CA178B2D0E94BA176FE772E080E695E05A
:1047D0000E941C1862E070E080E090E00E94180ADD
:1047E0000E942C17F801808124E0829FF00111249F
:1047F00069807A80E60DF71D9181890FF601A0810D
:10480000A81708F48A1B90E0BC01E3E0660F771F4D
:10481000EA95E1F730E020E02A17C8F4A9012F5FFC
:104820003F4FFB01E20FF31F69807A80E60DF71D11
:10483000E78DE111F1CF63E0880F991F6A95E1F7E9
:10484000860D971D480F591FDA019096BC92712C66
:10485000F6018081781608F046C2A72CB12CD80149
:10486000EC91B8E0EB9FF001112429813A81E20F2D
:10487000F31FEA0DFB1D60A0662009F434C260E856
:1048800083EC94E00E94F107662D83EC94E00E9493
:10489000F10760E083EC94E00E94F1070E94F516B6
:1048A00080E00E943F0A8823C1F085E00E94CF1774
:1048B0008DE792E00E94CA17D8018C910E94BA1726
:1048C0008DE792E00E94CA17862D0E94BA176FE703
:1048D00072E080E695E00E941C1862E070E080E0E3
:1048E00090E00E94180A0E942C17F8018081F8E0DD
:1048F0008F9FC001112429813A81820F931FA80E36
:10490000B91ED50190961C927394A2CFAC0140546D
:10491000510957FF02C04F5F5F4F5595479562554C
:10492000710977FF02C06F5F7F4F7595679510E43F
:10493000E12EF12C02E510E02FED39E0C5010E94D7
:10494000C20682E0F50182A3858D968D892B09F43C
:10495000D4C08CE381A31092B4041092B3041092DB
:10496000B2041092B1040E9497128CE797E09093E2
:10497000B0048093AF048DE797E09093AE048093EA
:10498000AD04D50198968C9187FD1FC061E00E940F
:10499000490961E0F50180A50E941B0961E070E012
:1049A00080E090E00E94DA0960E0D50198968C9151
:1049B0000E941B096AE070E080E090E00E94DA0942
:1049C00061E0F50180A50E941B09D5015D968D91DE
:1049D0009C915E97892B09F453C1D5962D913D91F9
:1049E0004D915C91D89760E074E284EF90E00E9472
:1049F0005D2A20513109410951095695479537954E
:104A000027952093B80044E065E577E0C5010E9452
:104A10004214F50166816150C5010E94E71444E02B
:104A200061E577E0C5010E944214D50192968C9110
:104A300060E1813009F064E1C5010E94E71444E0BF
:104A40006DE477E0C5010E9442148FE8F50185AF5F
:104A5000848195818038910509F029C186819781EB
:104A60008034910509F031C182A1813009F01DC166
:104A70008FE9D501DD968C9312E16AEDC5010E94A4
:104A8000E714612FC5010E94E71461E8C5010E9487
:104A9000E714F50165ADC5010E94E71469EDC50194
:104AA0000E94E714D50192968C9162E2813009F060
:104AB00061EFC5010E94E71446E067E477E0C501B5
:104AC0000E944214F501858D968D892B09F401C150
:104AD00021AD32AD43AD54AD60E074E284EF90E0BF
:104AE0000E945D2A20513109410951095695479587
:104AF000379527952093B800E0CD61E086A10E940C
:104B0000490961E0F50187A10E944909D5019696FE
:104B10008C919697082E000C990BFC01E754F84FE6
:104B2000E491F0E0EE0FFF1FE156F84F259134912C
:104B3000F50136A725A7FC01E75AF84FE491D39673
:104B4000EC93D39797968C91082E000C990BFC014F
:104B5000E754F84FE491F0E0EE0FFF1FE156F84FF5
:104B6000A591B491F501B0ABA7A7FC01E75AF84FA6
:104B70009491F50194AB8C91E92FE82BEC93D5013E
:104B80005B968D919C91892B09F434C01FB7F894E2
:104B90008091AC04811127C0EEEEF7E08491EEE83D
:104BA000F7E09491E82FF0E0EE0FFF1FE35DF84F80
:104BB000A591B491EC91E92321F461E085E30E9491
:104BC0001B0961E085E30E9449098CB580618CBDB9
:104BD0008CB580648CBD61E084E30E94490961E08A
:104BE00083E30E9449098091AC048F5F8093AC04F9
:104BF0001FBFC7CE61E0F50184A10E94490961E0B1
:104C0000D50195968C910E944909F50184A1082E41
:104C1000000C990BFC01E754F84FE491F0E0EE0F23
:104C2000FF1FE156F84F25913491D5019A963C9398
:104C30002E939997FC01E75AF84FE491D196EC93A3
:104C4000D19795968C91082E000C990BFC01E75496
:104C5000F84FE491F0E0EE0FFF1FE156F84FA591F9
:104C6000B491F501B4A7A3A7FC01E75AF84F9491BA
:104C7000F50192AB8C91E92FE095E823EC9381CE7E
:104C8000F501838D948D892B21F086AD97AD0E941F
:104C90006D12D5019F96ED91FC91D0979081D4969D
:104CA0008C91809589238083AECE8FECE2CE8036C6
:104CB000910559F486819781409739F482A181301A
:104CC00031F480E1D501DD968C9312E0D6CE8FEAE7
:104CD000F9CFD50107A4F0A9E02D8081D4969C914D
:104CE000892B8083EACCF70110820E940C0A2B01E9
:104CF0003C010091BF041091C0041A870987F80194
:104D000082899389A489B58993018201081B190BB3
:104D10002A0B3B0BD901C8010297A105B10508F484
:104D2000C2C0428A538A648A758A5F016F01B6E104
:104D3000CB0ED11CF12CE12CF501019111915F01F9
:104D4000D8018C910E94F208382EF80182810E94CD
:104D5000F208880F991F682F6329D80116968C9145
:104D60001697681709F456C016964C911697179621
:104D70008D919D910D90BC91A02DE4E04E02A0017B
:104D80001124262F062E000C330B242B352BF90172
:104D9000E55CFD4F2081022E000C330B440B550BBC
:104DA000820F931FA41FB51FF80187839087A187E7
:104DB000B2876683848195818230910549F1833081
:104DC000910509F4CEC0019729F5633019F5878163
:104DD0009085A185B28532E0B595A7959795879581
:104DE0003A95D1F783879487A587B6878389948975
:104DF000A589B689878B908FA18FB28F0E940C0AEC
:104E0000D80153966D937D938D939C93569702C0D2
:104E10006623E9F2F501329720803180F101438564
:104E2000548565857685D6010D911D912D913D9115
:104E30006D01041715072607370769F114974D937D
:104E40005D936D937C93139707851089218932892F
:104E500009831A832B833C83038514852585368536
:104E600089819A81AB81BC81081719072A073B0702
:104E70000CF086C083859485A585B6858787908B41
:104E8000A18BB28B2FEF3FEFA985BA85DA96ED9112
:104E9000FC91C7011995BFEFEB1AFB0AE9E0EE168A
:104EA000F10409F049CF0091BD041091BE041A83AA
:104EB0000983F80180819181A281B38193018201EC
:104EC000081B190B2A0B3B0BD901C8010597A1053B
:104ED000B10508F49CC0408251826282738261E015
:104EE00086E00E941B0960E088E00E941B0961E0E7
:104EF00088E00E941B0960E086E00E941B0910E028
:104F000000E0C12CD12C7601E981FA818485958558
:104F1000081719070CF05FC085E00E94F208092EFF
:104F2000000CAA0BBB0BE981FA8124853585215041
:104F30003109201B310B04C0880F991FAA1FBB1F0A
:104F40002A95D2F7C82AD92AEA2AFB2A61E087E003
:104F50000E941B0960E087E00E941B090F5F1F4F42
:104F6000D3CF662319F0633009F054CFF80187815D
:104F70009085A185B285B595A7959795879532CFF0
:104F8000078510892189328909831A832B833C8301
:104F9000038514852585368589819A81AB81BC81FD
:104FA00080179107A207B3075CF483859485A585D4
:104FB000B6858787908BA18BB28B21E030E064CFE0
:104FC00083859485A585B6858787908BA18BB28BC9
:104FD00030E020E059CFA981BA811896CD92DD92B8
:104FE000ED92FC921B97FD0184819581A681B7818A
:104FF000C816D906EA06FB0651F0C482D582E682BD
:10500000F7820088F189E02DC701B60119958091DA
:105010004F060E94F20890936206809361062091E9
:105020005F06309160068217930791F00E940C0A88
:10503000609363067093640680936506909366069A
:1050400080916106909162069093600680935F065E
:105050000E940C0A00916306109164062091650677
:1050600030916606601B710B820B930B0091510609
:105070001091520620915306309154066017710723
:105080008207930780F080915D0690915E06909371
:105090005C0680935B068091610690916206909316
:1050A0005E0680935D0620915B0630915C068091E0
:1050B0005D0690915E062817390709F484C0409177
:1050C000590650915A0642305105D9F4409155067F
:1050D0005091560660915706709158064F5F5F4F8A
:1050E0006F4F7F4F40935506509356066093570677
:1050F000709358062130310509F065C0892BF9F00D
:1051000062C04115510509F041C02130310509F057
:105110005AC0892B09F057C08091550690915606C8
:10512000A0915706B09158060196A11DB11D80931C
:10513000550690935606A0935706B093580660E024
:105140008091B7049091B8040E94551881113BC01A
:105150008091B7049091B804FC016489AC01460FBA
:10516000511DFA01E856FE4F20812F5F2083022E49
:10517000000C330B41575E4FDA014C914217130676
:1051800009F00CF410820E9455181DC041305105E1
:1051900009F0B0CF2115310509F0ACCF019799F492
:1051A0008091550690915606A0915706B0915806E9
:1051B0000196A11DB11D8093550690935606A093AC
:1051C0005706B09358068091BC04882341F1109291
:1051D000BC048091BB04B40102C0660F771F8A959E
:1051E000E2F7072E000C880B990B0E943F17609086
:1051F000B7047090B8047A826982D3011296ED9157
:10520000FC91E759FF4F25E042E06081C3010E9415
:105210007D1AE981FA816489CF010E9455180E94A4
:105220005E0888CA0F931F93CF93DF938230910556
:1052300010F482E090E0E0916906F0916A0630E0B7
:1052400020E0B0E0A0E0309799F42115310509F491
:105250004AC0281B390B24303105D8F58A819B813F
:105260006115710589F1FB0193838283FE0111C0F1
:10527000408151810281138148175907E0F0481796
:10528000590799F4109761F012960C9312971396A0
:105290001C933296CF01DF91CF911F910F9108950A
:1052A0000093690610936A06F4CF2115310551F079
:1052B0004217530738F0A901DB019A01BD01DF0154
:1052C000F801C1CFEF01F9CF90936A068093690688
:1052D000CDCFFE01E20FF31F81939193225031094C
:1052E00039832883D7CF2091670630916806232B16
:1052F00041F420910202309103023093680620931A
:10530000670620910002309101022115310541F418
:105310002DB73EB74091040250910502241B350B76
:10532000E0916706F0916806E217F307A0F42E1BE0
:105330003F0B2817390778F0AC014E5F5F4F2417F9
:10534000350748F04E0F5F1F50936806409367067D
:10535000819391939FCFF0E0E0E09CCFCF93DF93D8
:105360000097E9F0FC01329713821282A09169063E
:10537000B0916A06ED0130E020E01097A1F42081A1
:105380003181820F931F209167063091680628179C
:10539000390709F061C0F0936806E0936706DF9172
:1053A000CF910895EA01CE17DF07E8F54A815B81C6
:1053B0009E0141155105B1F7E901FB83EA8349914B
:1053C0005991C40FD51FEC17FD0761F480819181BD
:1053D0000296840F951FE9019983888382819381C6
:1053E0009B838A83F0E0E0E012968D919C91139765
:1053F0000097B9F52D913C911197CD010296820F3E
:10540000931F20916706309168062817390739F6EF
:10541000309751F510926A0610926906B0936806AB
:10542000A0936706BCCFD383C28340815181840F90
:10543000951FC817D90761F44E5F5F4F8881998126
:10544000480F591F518340838A819B8193838283B4
:105450002115310509F0B0CFF0936A06E093690693
:105460009ECFFD01DC01C0CF13821282D7CFFC0199
:1054700088279927E89421912032E9F3293010F008
:105480002E30C8F32B3241F02D3239F4689404C029
:105490000E94552A820F911D219120532A30C0F37A
:1054A0001EF4909581959F4F08957AE0979F902DD7
:1054B000879F802D910D11240895A1E21A2EAA1B19
:1054C000BB1BFD010DC0AA1FBB1FEE1FFF1FA217B4
:1054D000B307E407F50720F0A21BB30BE40BF50BB1
:1054E000661F771F881F991F1A9469F7609570953A
:1054F000809590959B01AC01BD01CF010895AA1B39
:10550000BB1B51E107C0AA1FBB1FA617B70710F0AE
:10551000A61BB70B881F991F5A95A9F780959095E0
:10552000BC01CD010895052E97FB1EF400940E9446
:10553000AA2A57FD07D00E945D2A07FC03D04EF42B
:105540000C94AA2A50954095309521953F4F4F4F86
:105550005F4F089590958095709561957F4F8F4F1F
:105560009F4F0895EE0FFF1F881F8BBF0790F69186
:10557000E02D199481E090E0F8940C949C2DDC01CE
:1055800001C06D9341505040E0F708950F931F9371
:10559000CF93DF93CDB7DEB72E970FB6F894DEBF6B
:1055A0000FBECDBF0E891F8986E08C831A830983C5
:1055B0008FEF9FE79E838D83AE01465E5F4F688DC0
:1055C000798DCE0101960E94F62A2F813885020F2F
:1055D000131FF80110822E960FB6F894DEBF0FBE8F
:1055E000CDBFDF91CF911F910F9108952F923F92E0
:1055F0004F925F926F927F928F929F92AF92BF92E3
:10560000CF92DF92EF92FF920F931F93CF93DF938E
:1056100000D000D000D01F921F92CDB7DEB77C0122
:105620003B018A01FC0117821682838181FFDDC163
:10563000CE0101965C01F7019381F30193FD859101
:1056400093FF81913F01882309F453C1853239F4D6
:1056500093FD859193FF81913F01853229F4B70134
:1056600090E00E940E2DE7CF912C212C312CFFE1F0
:10567000F31538F08B3211F190F4803209F1833256
:1056800029F137FC3CC020ED280F2A3050F536FEBA
:1056900020C08AE0989E200D1124922E06C08D32E3
:1056A00091F0803371F7689430F8F30193FD8591A0
:1056B00093FF81913F018111DACF21C0689431F8C5
:1056C000689432F8F2CF689433F8EFCF689434F8E6
:1056D000ECCFEAE02E9E200D1124222E689435F89E
:1056E000E4CF8E3229F436FC04C1689436F8DDCF5D
:1056F0008C3619F4689437F8D8CF8836B1F2982FE1
:105700009F7D95549330E0F08336A1F18337C1F14A
:10571000833509F063C02801F2E04F0E511CF801F7
:10572000C080D180692D70E036FC02C06FEF7FEF42
:10573000C6010E94F82C4C01689437F882010AC017
:105740000C5F1F4FFFE3F98388248394912C65013C
:10575000E89437F833FE2DC0522C8114910471F572
:10576000552009F468CFB70180E290E00E940E2D29
:105770005A94F6CFF801808189830E5F1F4FE4CFE2
:105780002801F2E04F0E511CF801C080D180692D34
:1057900070E036FC02C06FEF7FEFC6010E94032D60
:1057A0004C018201D5CFB70180E290E00E940E2D1E
:1057B0002A942814190409F0B0F7CECFF60137FC6B
:1057C000859137FE81916F01B70190E00E940E2D07
:1057D00051105A94F1E08F1A9108BFCF843619F016
:1057E000893609F077C0F80137FE6BC0608171819E
:1057F000828193810C5F1F4FF32DFF763F2E97FF21
:1058000009C090958095709561957F4F8F4F9F4F00
:10581000689437F82AE030E0A5010E943E2DC82E9A
:10582000CA188C2C432C36FE0CC0E89440F8C914DE
:1058300040F434FE05C032FC03C0F32DFE7E4F2E33
:10584000892C44FEAAC0FE01EC0DF11D808180333D
:1058500009F09CC0242D297E422E842D8870582E5C
:1058600043FCAAC040FEA4C09C2C821418F42C0C4B
:10587000922C981844FEA6C0B70180E390E00E94E5
:105880000E2D42FE09C088E790E041FE02C088E587
:1058900090E0B7010E940E2DC91408F49FC0CA946D
:1058A000D12C9FEFC91AD90ACA0CDB1CF6018291D0
:1058B0006F01B70190E00E940E2DAC14BD04B1F74A
:1058C0004FCF60817181072E000C880B990B0E5F02
:1058D0001F4F92CFD32CE894D4F82AE030E08537DC
:1058E000E1F1232D297FD22E8F36A9F1F0F48835EE
:1058F00051F1F701868197812B960FB6F894DEBFA0
:105900000FBECDBFDF91CF911F910F91FF90EF9010
:10591000DF90CF90BF90AF909F908F907F906F90CF
:105920005F904F903F902F900895803749F08837CF
:1059300001F7D4FE02C06894D2F820E130E00DC037
:105940006894D4F8F6CF34FE03C0822F8660D82E38
:1059500020E132E002C028E030E0F801D7FE0FC0BD
:1059600060817181828193810C5F1F4FA5010E942C
:105970003E2DC82ECA183D2CE89437F852CF6081CE
:10598000718190E080E00E5F1F4FF0CF42FC02C0BB
:10599000839463CF8394839460CF842D867809F4B5
:1059A0005CCFF6CFB70180E290E00E940E2D839489
:1059B0008214C0F3512C5ECF522C5818821408F474
:1059C00059CFF8CF842D867809F466CF8BE241FE5B
:1059D00080E247FC8DE2B70190E05CCFB70180E345
:1059E00090E00E940E2D9A9457CF8FEF9FEF84CFB7
:1059F000FC010590615070400110D8F7809590959A
:105A00008E0F9F1F0895FC0161507040019001109E
:105A1000D8F7809590958E0F9F1F08950F931F9331
:105A2000CF93DF93182F092FEB018B8181FD09C0E4
:105A30001FEF0FEF812F902FDF91CF911F910F91CB
:105A4000089582FF14C02E813F818C819D8128178B
:105A500039073CF4E881F981CF0101969983888365
:105A600010838E819F8101969F838E83E3CFE8858B
:105A7000F985812F1995892BA1F3DACFFA01AA278D
:105A8000283051F1203181F1E8946F936E7F6E5F81
:105A90007F4F8F4F9F4FAF4FB1E03ED0B4E03CD02F
:105AA000670F781F891F9A1FA11D680F791F8A1F12
:105AB000911DA11D6A0F711D811D911DA11D20D079
:105AC00009F468943F912AE0269F11243019305D33
:105AD0003193DEF6CF010895462F4770405D419324
